{
  "_format": "hh-sol-artifact-1",
  "contractName": "Voting",
  "sourceName": "contracts/voting.sol",
  "abi": [
    {
      "inputs": [
        {
          "internalType": "string[]",
          "name": "candidateNames",
          "type": "string[]"
        }
      ],
      "stateMutability": "nonpayable",
      "type": "constructor"
    },
    {
      "anonymous": false,
      "inputs": [
        {
          "indexed": true,
          "internalType": "uint256",
          "name": "candidateId",
          "type": "uint256"
        },
        {
          "indexed": true,
          "internalType": "address",
          "name": "voter",
          "type": "address"
        }
      ],
      "name": "Voted",
      "type": "event"
    },
    {
      "inputs": [
        {
          "internalType": "uint256",
          "name": "",
          "type": "uint256"
        }
      ],
      "name": "candidates",
      "outputs": [
        {
          "internalType": "uint256",
          "name": "id",
          "type": "uint256"
        },
        {
          "internalType": "string",
          "name": "name",
          "type": "string"
        },
        {
          "internalType": "uint256",
          "name": "voteCount",
          "type": "uint256"
        }
      ],
      "stateMutability": "view",
      "type": "function"
    },
    {
      "inputs": [],
      "name": "candidatesCount",
      "outputs": [
        {
          "internalType": "uint256",
          "name": "",
          "type": "uint256"
        }
      ],
      "stateMutability": "view",
      "type": "function"
    },
    {
      "inputs": [
        {
          "internalType": "uint256",
          "name": "candidateId",
          "type": "uint256"
        }
      ],
      "name": "getCandidate",
      "outputs": [
        {
          "internalType": "string",
          "name": "",
          "type": "string"
        },
        {
          "internalType": "uint256",
          "name": "",
          "type": "uint256"
        }
      ],
      "stateMutability": "view",
      "type": "function"
    },
    {
      "inputs": [
        {
          "internalType": "uint256",
          "name": "candidateId",
          "type": "uint256"
        }
      ],
      "name": "vote",
      "outputs": [],
      "stateMutability": "nonpayable",
      "type": "function"
    },
    {
      "inputs": [
        {
          "internalType": "address",
          "name": "",
          "type": "address"
        }
      ],
      "name": "voters",
      "outputs": [
        {
          "internalType": "bool",
          "name": "",
          "type": "bool"
        }
      ],
      "stateMutability": "view",
      "type": "function"
    }
  ],
  "bytecode": "0x608060405234801561001057600080fd5b506040516110043803806110048339818101604052810190610032919061033a565b60005b81518110156100d857604051806060016040528082815260200183838151811061006257610061610383565b5b6020026020010151815260200160008152506000808381526020019081526020016000206000820151816000015560208201518160010190816100a591906105d3565b5060408201518160020155905050600260008154809291906100c6906106d4565b91905055508080600101915050610035565b505061071c565b6000604051905090565b600080fd5b600080fd5b600080fd5b6000601f19601f8301169050919050565b7f4e487b7100000000000000000000000000000000000000000000000000000000600052604160045260246000fd5b610141826100f8565b810181811067ffffffffffffffff821117156101605761015f610109565b5b80604052505050565b60006101736100df565b905061017f8282610138565b919050565b600067ffffffffffffffff82111561019f5761019e610109565b5b602082029050602081019050919050565b600080fd5b600080fd5b600067ffffffffffffffff8211156101d5576101d4610109565b5b6101de826100f8565b9050602081019050919050565b60005b838110156102095780820151818401526020810190506101ee565b60008484015250505050565b6000610228610223846101ba565b610169565b905082815260208101848484011115610244576102436101b5565b5b61024f8482856101eb565b509392505050565b600082601f83011261026c5761026b6100f3565b5b815161027c848260208601610215565b91505092915050565b600061029861029384610184565b610169565b905080838252602082019050602084028301858111156102bb576102ba6101b0565b5b835b8181101561030257805167ffffffffffffffff8111156102e0576102df6100f3565b5b8086016102ed8982610257565b855260208501945050506020810190506102bd565b5050509392505050565b600082601f830112610321576103206100f3565b5b8151610331848260208601610285565b91505092915050565b6000602082840312156103505761034f6100e9565b5b600082015167ffffffffffffffff81111561036e5761036d6100ee565b5b61037a8482850161030c565b91505092915050565b7f4e487b7100000000000000000000000000000000000000000000000000000000600052603260045260246000fd5b600081519050919050565b7f4e487b7100000000000000000000000000000000000000000000000000000000600052602260045260246000fd5b6000600282049050600182168061040457607f821691505b602082108103610417576104166103bd565b5b50919050565b60008190508160005260206000209050919050565b60006020601f8301049050919050565b600082821b905092915050565b60006008830261047f7fffffffffffffffffffffffffffffffffffffffffffffffffffffffffffffffff82610442565b6104898683610442565b95508019841693508086168417925050509392505050565b6000819050919050565b6000819050919050565b60006104d06104cb6104c6846104a1565b6104ab565b6104a1565b9050919050565b6000819050919050565b6104ea836104b5565b6104fe6104f6826104d7565b84845461044f565b825550505050565b600090565b610513610506565b61051e8184846104e1565b505050565b5b818110156105425761053760008261050b565b600181019050610524565b5050565b601f821115610587576105588161041d565b61056184610432565b81016020851015610570578190505b61058461057c85610432565b830182610523565b50505b505050565b600082821c905092915050565b60006105aa6000198460080261058c565b1980831691505092915050565b60006105c38383610599565b9150826002028217905092915050565b6105dc826103b2565b67ffffffffffffffff8111156105f5576105f4610109565b5b6105ff82546103ec565b61060a828285610546565b600060209050601f83116001811461063d576000841561062b578287015190505b61063585826105b7565b86555061069d565b601f19841661064b8661041d565b60005b828110156106735784890151825560018201915060208501945060208101905061064e565b86831015610690578489015161068c601f891682610599565b8355505b6001600288020188555050505b505050505050565b7f4e487b7100000000000000000000000000000000000000000000000000000000600052601160045260246000fd5b60006106df826104a1565b91507fffffffffffffffffffffffffffffffffffffffffffffffffffffffffffffffff8203610711576107106106a5565b5b600182019050919050565b6108d98061072b6000396000f3fe608060405234801561001057600080fd5b50600436106100575760003560e01c80630121b93f1461005c5780632d35a8a2146100785780633477ee2e1461009657806335b8e820146100c8578063a3ec138d146100f9575b600080fd5b610076600480360381019061007191906104de565b610129565b005b6100806102c3565b60405161008d919061051a565b60405180910390f35b6100b060048036038101906100ab91906104de565b6102c9565b6040516100bf939291906105c5565b60405180910390f35b6100e260048036038101906100dd91906104de565b61037b565b6040516100f0929190610603565b60405180910390f35b610113600480360381019061010e9190610691565b610483565b60405161012091906106d9565b60405180910390f35b600160003373ffffffffffffffffffffffffffffffffffffffff1673ffffffffffffffffffffffffffffffffffffffff16815260200190815260200160002060009054906101000a900460ff16156101b6576040517f08c379a00000000000000000000000000000000000000000000000000000000081526004016101ad90610740565b60405180910390fd5b60025481106101fa576040517f08c379a00000000000000000000000000000000000000000000000000000000081526004016101f1906107ac565b60405180910390fd5b60018060003373ffffffffffffffffffffffffffffffffffffffff1673ffffffffffffffffffffffffffffffffffffffff16815260200190815260200160002060006101000a81548160ff0219169083151502179055506000808281526020019081526020016000206002016000815480929190610277906107fb565b91905055503373ffffffffffffffffffffffffffffffffffffffff16817f030b0f8dcd86a031eddb071f91882edeac8173663ba775713b677b42b51be44b60405160405180910390a350565b60025481565b60006020528060005260406000206000915090508060000154908060010180546102f290610872565b80601f016020809104026020016040519081016040528092919081815260200182805461031e90610872565b801561036b5780601f106103405761010080835404028352916020019161036b565b820191906000526020600020905b81548152906001019060200180831161034e57829003601f168201915b5050505050908060020154905083565b6060600060025483106103c3576040517f08c379a00000000000000000000000000000000000000000000000000000000081526004016103ba906107ac565b60405180910390fd5b600080848152602001908152602001600020600101600080858152602001908152602001600020600201548180546103fa90610872565b80601f016020809104026020016040519081016040528092919081815260200182805461042690610872565b80156104735780601f1061044857610100808354040283529160200191610473565b820191906000526020600020905b81548152906001019060200180831161045657829003601f168201915b5050505050915091509150915091565b60016020528060005260406000206000915054906101000a900460ff1681565b600080fd5b6000819050919050565b6104bb816104a8565b81146104c657600080fd5b50565b6000813590506104d8816104b2565b92915050565b6000602082840312156104f4576104f36104a3565b5b6000610502848285016104c9565b91505092915050565b610514816104a8565b82525050565b600060208201905061052f600083018461050b565b92915050565b600081519050919050565b600082825260208201905092915050565b60005b8381101561056f578082015181840152602081019050610554565b60008484015250505050565b6000601f19601f8301169050919050565b600061059782610535565b6105a18185610540565b93506105b1818560208601610551565b6105ba8161057b565b840191505092915050565b60006060820190506105da600083018661050b565b81810360208301526105ec818561058c565b90506105fb604083018461050b565b949350505050565b6000604082019050818103600083015261061d818561058c565b905061062c602083018461050b565b9392505050565b600073ffffffffffffffffffffffffffffffffffffffff82169050919050565b600061065e82610633565b9050919050565b61066e81610653565b811461067957600080fd5b50565b60008135905061068b81610665565b92915050565b6000602082840312156106a7576106a66104a3565b5b60006106b58482850161067c565b91505092915050565b60008115159050919050565b6106d3816106be565b82525050565b60006020820190506106ee60008301846106ca565b92915050565b7f596f75206861766520616c726561647920766f7465642e000000000000000000600082015250565b600061072a601783610540565b9150610735826106f4565b602082019050919050565b600060208201905081810360008301526107598161071d565b9050919050565b7f496e76616c69642063616e6469646174652e0000000000000000000000000000600082015250565b6000610796601283610540565b91506107a182610760565b602082019050919050565b600060208201905081810360008301526107c581610789565b9050919050565b7f4e487b7100000000000000000000000000000000000000000000000000000000600052601160045260246000fd5b6000610806826104a8565b91507fffffffffffffffffffffffffffffffffffffffffffffffffffffffffffffffff8203610838576108376107cc565b5b600182019050919050565b7f4e487b7100000000000000000000000000000000000000000000000000000000600052602260045260246000fd5b6000600282049050600182168061088a57607f821691505b60208210810361089d5761089c610843565b5b5091905056fea2646970667358221220128ac5e91e5348ed3f237b3e0d283c7a094c81ab9a1e6b7890b89ac4379c2a6664736f6c634300081c0033",
  "linkReferences": {},
  "deployedLinkReferences": {}
}